{
  "_format": "hh-sol-artifact-1",
  "contractName": "Funds",
  "sourceName": "contracts/Funds.sol",
  "abi": [
    {
      "inputs": [],
      "stateMutability": "nonpayable",
      "type": "constructor"
    },
    {
      "inputs": [
        {
          "internalType": "uint256",
          "name": "_amount",
          "type": "uint256"
        }
      ],
      "name": "AddFunds",
      "outputs": [],
      "stateMutability": "nonpayable",
      "type": "function"
    },
    {
      "inputs": [
        {
          "internalType": "uint256",
          "name": "_amount",
          "type": "uint256"
        },
        {
          "internalType": "string",
          "name": "_to",
          "type": "string"
        },
        {
          "internalType": "string",
          "name": "_project",
          "type": "string"
        }
      ],
      "name": "AllocateFunds",
      "outputs": [],
      "stateMutability": "nonpayable",
      "type": "function"
    },
    {
      "inputs": [],
      "name": "CentralLogin",
      "outputs": [
        {
          "internalType": "bool",
          "name": "",
          "type": "bool"
        }
      ],
      "stateMutability": "view",
      "type": "function"
    },
    {
      "inputs": [
        {
          "internalType": "string",
          "name": "_name",
          "type": "string"
        }
      ],
      "name": "CheckRegister",
      "outputs": [
        {
          "internalType": "bool",
          "name": "",
          "type": "bool"
        }
      ],
      "stateMutability": "view",
      "type": "function"
    },
    {
      "inputs": [],
      "name": "GetBalance",
      "outputs": [
        {
          "internalType": "uint256",
          "name": "",
          "type": "uint256"
        }
      ],
      "stateMutability": "view",
      "type": "function"
    },
    {
      "inputs": [],
      "name": "GetSpend",
      "outputs": [
        {
          "internalType": "uint256",
          "name": "",
          "type": "uint256"
        }
      ],
      "stateMutability": "view",
      "type": "function"
    },
    {
      "inputs": [],
      "name": "GovernmentDetails",
      "outputs": [
        {
          "components": [
            {
              "internalType": "address",
              "name": "add",
              "type": "address"
            },
            {
              "internalType": "string",
              "name": "gov_type",
              "type": "string"
            },
            {
              "internalType": "string",
              "name": "name",
              "type": "string"
            },
            {
              "internalType": "uint256",
              "name": "balance",
              "type": "uint256"
            },
            {
              "internalType": "uint256",
              "name": "spend",
              "type": "uint256"
            }
          ],
          "internalType": "struct Funds.Government",
          "name": "",
          "type": "tuple"
        }
      ],
      "stateMutability": "view",
      "type": "function"
    },
    {
      "inputs": [],
      "name": "GovernmentLogin",
      "outputs": [
        {
          "internalType": "bool",
          "name": "",
          "type": "bool"
        }
      ],
      "stateMutability": "view",
      "type": "function"
    },
    {
      "inputs": [
        {
          "internalType": "address",
          "name": "_add",
          "type": "address"
        },
        {
          "internalType": "string",
          "name": "_govtype",
          "type": "string"
        },
        {
          "internalType": "string",
          "name": "_name",
          "type": "string"
        }
      ],
      "name": "Register",
      "outputs": [],
      "stateMutability": "nonpayable",
      "type": "function"
    },
    {
      "inputs": [
        {
          "internalType": "uint256",
          "name": "_amount",
          "type": "uint256"
        },
        {
          "internalType": "string",
          "name": "_to",
          "type": "string"
        },
        {
          "internalType": "string",
          "name": "_project",
          "type": "string"
        }
      ],
      "name": "TransferFunds",
      "outputs": [],
      "stateMutability": "nonpayable",
      "type": "function"
    },
    {
      "inputs": [
        {
          "internalType": "uint256",
          "name": "",
          "type": "uint256"
        }
      ],
      "name": "alloc",
      "outputs": [
        {
          "internalType": "uint256",
          "name": "amount",
          "type": "uint256"
        },
        {
          "internalType": "uint256",
          "name": "time",
          "type": "uint256"
        }
      ],
      "stateMutability": "view",
      "type": "function"
    },
    {
      "inputs": [],
      "name": "balance",
      "outputs": [
        {
          "internalType": "uint256",
          "name": "",
          "type": "uint256"
        }
      ],
      "stateMutability": "view",
      "type": "function"
    },
    {
      "inputs": [],
      "name": "central",
      "outputs": [
        {
          "internalType": "address",
          "name": "",
          "type": "address"
        }
      ],
      "stateMutability": "view",
      "type": "function"
    },
    {
      "inputs": [],
      "name": "getAllGovernment",
      "outputs": [
        {
          "components": [
            {
              "internalType": "address",
              "name": "add",
              "type": "address"
            },
            {
              "internalType": "string",
              "name": "gov_type",
              "type": "string"
            },
            {
              "internalType": "string",
              "name": "name",
              "type": "string"
            },
            {
              "internalType": "uint256",
              "name": "balance",
              "type": "uint256"
            },
            {
              "internalType": "uint256",
              "name": "spend",
              "type": "uint256"
            }
          ],
          "internalType": "struct Funds.Government[]",
          "name": "",
          "type": "tuple[]"
        }
      ],
      "stateMutability": "view",
      "type": "function"
    },
    {
      "inputs": [],
      "name": "getAllGovernmentAllocatedTrancations",
      "outputs": [
        {
          "components": [
            {
              "internalType": "address",
              "name": "from",
              "type": "address"
            },
            {
              "internalType": "address",
              "name": "to",
              "type": "address"
            },
            {
              "internalType": "string",
              "name": "from_name",
              "type": "string"
            },
            {
              "internalType": "string",
              "name": "to_name",
              "type": "string"
            },
            {
              "internalType": "uint256",
              "name": "time",
              "type": "uint256"
            },
            {
              "internalType": "uint256",
              "name": "amount",
              "type": "uint256"
            },
            {
              "internalType": "string",
              "name": "project_name",
              "type": "string"
            }
          ],
          "internalType": "struct Funds.Transactions[]",
          "name": "",
          "type": "tuple[]"
        }
      ],
      "stateMutability": "view",
      "type": "function"
    },
    {
      "inputs": [],
      "name": "getAllGovernmentSpendTrancations",
      "outputs": [
        {
          "components": [
            {
              "internalType": "address",
              "name": "from",
              "type": "address"
            },
            {
              "internalType": "address",
              "name": "to",
              "type": "address"
            },
            {
              "internalType": "string",
              "name": "from_name",
              "type": "string"
            },
            {
              "internalType": "string",
              "name": "to_name",
              "type": "string"
            },
            {
              "internalType": "uint256",
              "name": "time",
              "type": "uint256"
            },
            {
              "internalType": "uint256",
              "name": "amount",
              "type": "uint256"
            },
            {
              "internalType": "string",
              "name": "project_name",
              "type": "string"
            }
          ],
          "internalType": "struct Funds.Transactions[]",
          "name": "",
          "type": "tuple[]"
        }
      ],
      "stateMutability": "view",
      "type": "function"
    },
    {
      "inputs": [],
      "name": "getAllGovernmentTrancations",
      "outputs": [
        {
          "components": [
            {
              "internalType": "address",
              "name": "from",
              "type": "address"
            },
            {
              "internalType": "address",
              "name": "to",
              "type": "address"
            },
            {
              "internalType": "string",
              "name": "from_name",
              "type": "string"
            },
            {
              "internalType": "string",
              "name": "to_name",
              "type": "string"
            },
            {
              "internalType": "uint256",
              "name": "time",
              "type": "uint256"
            },
            {
              "internalType": "uint256",
              "name": "amount",
              "type": "uint256"
            },
            {
              "internalType": "string",
              "name": "project_name",
              "type": "string"
            }
          ],
          "internalType": "struct Funds.Transactions[]",
          "name": "",
          "type": "tuple[]"
        }
      ],
      "stateMutability": "view",
      "type": "function"
    },
    {
      "inputs": [],
      "name": "getAllTrancations",
      "outputs": [
        {
          "components": [
            {
              "internalType": "address",
              "name": "from",
              "type": "address"
            },
            {
              "internalType": "address",
              "name": "to",
              "type": "address"
            },
            {
              "internalType": "string",
              "name": "from_name",
              "type": "string"
            },
            {
              "internalType": "string",
              "name": "to_name",
              "type": "string"
            },
            {
              "internalType": "uint256",
              "name": "time",
              "type": "uint256"
            },
            {
              "internalType": "uint256",
              "name": "amount",
              "type": "uint256"
            },
            {
              "internalType": "string",
              "name": "project_name",
              "type": "string"
            }
          ],
          "internalType": "struct Funds.Transactions[]",
          "name": "",
          "type": "tuple[]"
        }
      ],
      "stateMutability": "view",
      "type": "function"
    },
    {
      "inputs": [],
      "name": "getAllocatedFunds",
      "outputs": [
        {
          "components": [
            {
              "internalType": "uint256",
              "name": "amount",
              "type": "uint256"
            },
            {
              "internalType": "uint256",
              "name": "time",
              "type": "uint256"
            }
          ],
          "internalType": "struct Funds.Allocated[]",
          "name": "",
          "type": "tuple[]"
        }
      ],
      "stateMutability": "view",
      "type": "function"
    },
    {
      "inputs": [],
      "name": "getTransactionCount",
      "outputs": [
        {
          "internalType": "uint256",
          "name": "",
          "type": "uint256"
        }
      ],
      "stateMutability": "view",
      "type": "function"
    },
    {
      "inputs": [
        {
          "internalType": "uint256",
          "name": "",
          "type": "uint256"
        }
      ],
      "name": "gov",
      "outputs": [
        {
          "internalType": "address",
          "name": "add",
          "type": "address"
        },
        {
          "internalType": "string",
          "name": "gov_type",
          "type": "string"
        },
        {
          "internalType": "string",
          "name": "name",
          "type": "string"
        },
        {
          "internalType": "uint256",
          "name": "balance",
          "type": "uint256"
        },
        {
          "internalType": "uint256",
          "name": "spend",
          "type": "uint256"
        }
      ],
      "stateMutability": "view",
      "type": "function"
    },
    {
      "inputs": [],
      "name": "spend",
      "outputs": [
        {
          "internalType": "uint256",
          "name": "",
          "type": "uint256"
        }
      ],
      "stateMutability": "view",
      "type": "function"
    },
    {
      "inputs": [
        {
          "internalType": "uint256",
          "name": "",
          "type": "uint256"
        }
      ],
      "name": "transactions",
      "outputs": [
        {
          "internalType": "address",
          "name": "from",
          "type": "address"
        },
        {
          "internalType": "address",
          "name": "to",
          "type": "address"
        },
        {
          "internalType": "string",
          "name": "from_name",
          "type": "string"
        },
        {
          "internalType": "string",
          "name": "to_name",
          "type": "string"
        },
        {
          "internalType": "uint256",
          "name": "time",
          "type": "uint256"
        },
        {
          "internalType": "uint256",
          "name": "amount",
          "type": "uint256"
        },
        {
          "internalType": "string",
          "name": "project_name",
          "type": "string"
        }
      ],
      "stateMutability": "view",
      "type": "function"
    }
  ],
  "bytecode": "0x60806040523480156200001157600080fd5b50336000806101000a81548173ffffffffffffffffffffffffffffffffffffffff021916908373ffffffffffffffffffffffffffffffffffffffff16021790555060006001819055506000600281905550600060038190555060056040518060a001604052803373ffffffffffffffffffffffffffffffffffffffff1681526020016040518060400160405280600781526020017f43656e7472616c0000000000000000000000000000000000000000000000000081525081526020016040518060400160405280600781526020017f43656e7472616c000000000000000000000000000000000000000000000000008152508152602001600081526020016000815250908060018154018082558091505060019003906000526020600020906005020160009091909190915060008201518160000160006101000a81548173ffffffffffffffffffffffffffffffffffffffff021916908373ffffffffffffffffffffffffffffffffffffffff1602179055506020820151816001019080519060200190620001a3929190620001df565b506040820151816002019080519060200190620001c2929190620001df565b5060608201518160030155608082015181600401555050620002f4565b828054620001ed906200028f565b90600052602060002090601f0160209004810192826200021157600085556200025d565b82601f106200022c57805160ff19168380011785556200025d565b828001600101855582156200025d579182015b828111156200025c5782518255916020019190600101906200023f565b5b5090506200026c919062000270565b5090565b5b808211156200028b57600081600090555060010162000271565b5090565b60006002820490506001821680620002a857607f821691505b60208210811415620002bf57620002be620002c5565b5b50919050565b7f4e487b7100000000000000000000000000000000000000000000000000000000600052602260045260246000fd5b61430380620003046000396000f3fe608060405234801561001057600080fd5b506004361061014d5760003560e01c80637926fdb7116100c3578063e2c358e61161007c578063e2c358e614610387578063e948b9c6146103a5578063f20b245a146103d9578063f383027b146103f5578063f8f8a91214610413578063fd395f74146104315761014d565b80637926fdb7146102bf5780639ace38c2146102db578063b2048cd114610311578063b69ef8a81461032f578063b7826af81461034d578063ce032f561461036b5761014d565b80632e7700f0116101155780632e7700f0146101fb57806339a35f60146102195780634054ff731461023757806345615bcc1461025357806356e76a6614610271578063729d8f69146102a15761014d565b806307676a73146101525780630a644e09146101705780630c78065c1461018e578063191ac2d2146101ac5780632338bd8b146101dd575b600080fd5b61015a61044f565b6040516101679190613e50565b60405180910390f35b61017861098e565b6040516101859190613e2e565b60405180910390f35b610196610b7b565b6040516101a39190613e50565b60405180910390f35b6101c660048036038101906101c1919061376e565b610e50565b6040516101d4929190613eca565b60405180910390f35b6101e5610e84565b6040516101f29190613e50565b60405180910390f35b6102036113c3565b6040516102109190613eaf565b60405180910390f35b6102216113cd565b60405161022e9190613eaf565b60405180910390f35b610251600480360381019061024c9190613797565b6113d7565b005b61025b611a41565b6040516102689190613eaf565b60405180910390f35b61028b6004803603810190610286919061372d565b611a47565b6040516102989190613e72565b60405180910390f35b6102a9611bcf565b6040516102b69190613e8d565b60405180910390f35b6102d960048036038101906102d49190613797565b611f11565b005b6102f560048036038101906102f0919061376e565b6123ba565b6040516103089796959493929190613d27565b60405180910390f35b6103196125e4565b6040516103269190613e72565b60405180910390f35b6103376126c1565b6040516103449190613eaf565b60405180910390f35b6103556126c7565b6040516103629190613d0c565b60405180910390f35b6103856004803603810190610380919061376e565b6126eb565b005b61038f6127b6565b60405161039c9190613e72565b60405180910390f35b6103bf60048036038101906103ba919061376e565b61281e565b6040516103d0959493929190613dab565b60405180910390f35b6103f360048036038101906103ee91906136ae565b612994565b005b6103fd612a9a565b60405161040a9190613e0c565b60405180910390f35b61041b612b0d565b6040516104289190613eaf565b60405180910390f35b610439612b17565b6040516104469190613e50565b60405180910390f35b6060600060068054905090506000805b82811015610529573373ffffffffffffffffffffffffffffffffffffffff16600682815481106104b8577f4e487b7100000000000000000000000000000000000000000000000000000000600052603260045260246000fd5b906000526020600020906007020160010160009054906101000a900473ffffffffffffffffffffffffffffffffffffffff1673ffffffffffffffffffffffffffffffffffffffff161415610516576001826105139190614041565b91505b8080610521906141b8565b91505061045f565b5060008167ffffffffffffffff81111561056c577f4e487b7100000000000000000000000000000000000000000000000000000000600052604160045260246000fd5b6040519080825280602002602001820160405280156105a557816020015b6105926134cb565b81526020019060019003908161058a5790505b5090506000805b84811015610983573373ffffffffffffffffffffffffffffffffffffffff1660068281548110610605577f4e487b7100000000000000000000000000000000000000000000000000000000600052603260045260246000fd5b906000526020600020906007020160010160009054906101000a900473ffffffffffffffffffffffffffffffffffffffff1673ffffffffffffffffffffffffffffffffffffffff161415610970576006818154811061068d577f4e487b7100000000000000000000000000000000000000000000000000000000600052603260045260246000fd5b90600052602060002090600702016040518060e00160405290816000820160009054906101000a900473ffffffffffffffffffffffffffffffffffffffff1673ffffffffffffffffffffffffffffffffffffffff1673ffffffffffffffffffffffffffffffffffffffff1681526020016001820160009054906101000a900473ffffffffffffffffffffffffffffffffffffffff1673ffffffffffffffffffffffffffffffffffffffff1673ffffffffffffffffffffffffffffffffffffffff16815260200160028201805461076290614155565b80601f016020809104026020016040519081016040528092919081815260200182805461078e90614155565b80156107db5780601f106107b0576101008083540402835291602001916107db565b820191906000526020600020905b8154815290600101906020018083116107be57829003601f168201915b505050505081526020016003820180546107f490614155565b80601f016020809104026020016040519081016040528092919081815260200182805461082090614155565b801561086d5780601f106108425761010080835404028352916020019161086d565b820191906000526020600020905b81548152906001019060200180831161085057829003601f168201915b50505050508152602001600482015481526020016005820154815260200160068201805461089a90614155565b80601f01602080910402602001604051908101604052809291908181526020018280546108c690614155565b80156109135780601f106108e857610100808354040283529160200191610913565b820191906000526020600020905b8154815290600101906020018083116108f657829003601f168201915b505050505081525050838381518110610955577f4e487b7100000000000000000000000000000000000000000000000000000000600052603260045260246000fd5b602002602001018190525060018261096d9190614041565b91505b808061097b906141b8565b9150506105ac565b508194505050505090565b60606005805480602002602001604051908101604052809291908181526020016000905b82821015610b7257838290600052602060002090600502016040518060a00160405290816000820160009054906101000a900473ffffffffffffffffffffffffffffffffffffffff1673ffffffffffffffffffffffffffffffffffffffff1673ffffffffffffffffffffffffffffffffffffffff168152602001600182018054610a3b90614155565b80601f0160208091040260200160405190810160405280929190818152602001828054610a6790614155565b8015610ab45780601f10610a8957610100808354040283529160200191610ab4565b820191906000526020600020905b815481529060010190602001808311610a9757829003601f168201915b50505050508152602001600282018054610acd90614155565b80601f0160208091040260200160405190810160405280929190818152602001828054610af990614155565b8015610b465780601f10610b1b57610100808354040283529160200191610b46565b820191906000526020600020905b815481529060010190602001808311610b2957829003601f168201915b5050505050815260200160038201548152602001600482015481525050815260200190600101906109b2565b50505050905090565b60606006805480602002602001604051908101604052809291908181526020016000905b82821015610e4757838290600052602060002090600702016040518060e00160405290816000820160009054906101000a900473ffffffffffffffffffffffffffffffffffffffff1673ffffffffffffffffffffffffffffffffffffffff1673ffffffffffffffffffffffffffffffffffffffff1681526020016001820160009054906101000a900473ffffffffffffffffffffffffffffffffffffffff1673ffffffffffffffffffffffffffffffffffffffff1673ffffffffffffffffffffffffffffffffffffffff168152602001600282018054610c7e90614155565b80601f0160208091040260200160405190810160405280929190818152602001828054610caa90614155565b8015610cf75780601f10610ccc57610100808354040283529160200191610cf7565b820191906000526020600020905b815481529060010190602001808311610cda57829003601f168201915b50505050508152602001600382018054610d1090614155565b80601f0160208091040260200160405190810160405280929190818152602001828054610d3c90614155565b8015610d895780601f10610d5e57610100808354040283529160200191610d89565b820191906000526020600020905b815481529060010190602001808311610d6c57829003601f168201915b505050505081526020016004820154815260200160058201548152602001600682018054610db690614155565b80601f0160208091040260200160405190810160405280929190818152602001828054610de290614155565b8015610e2f5780601f10610e0457610100808354040283529160200191610e2f565b820191906000526020600020905b815481529060010190602001808311610e1257829003601f168201915b50505050508152505081526020019060010190610b9f565b50505050905090565b60048181548110610e6057600080fd5b90600052602060002090600202016000915090508060000154908060010154905082565b6060600060068054905090506000805b82811015610f5e573373ffffffffffffffffffffffffffffffffffffffff1660068281548110610eed577f4e487b7100000000000000000000000000000000000000000000000000000000600052603260045260246000fd5b906000526020600020906007020160000160009054906101000a900473ffffffffffffffffffffffffffffffffffffffff1673ffffffffffffffffffffffffffffffffffffffff161415610f4b57600182610f489190614041565b91505b8080610f56906141b8565b915050610e94565b5060008167ffffffffffffffff811115610fa1577f4e487b7100000000000000000000000000000000000000000000000000000000600052604160045260246000fd5b604051908082528060200260200182016040528015610fda57816020015b610fc76134cb565b815260200190600190039081610fbf5790505b5090506000805b848110156113b8573373ffffffffffffffffffffffffffffffffffffffff166006828154811061103a577f4e487b7100000000000000000000000000000000000000000000000000000000600052603260045260246000fd5b906000526020600020906007020160000160009054906101000a900473ffffffffffffffffffffffffffffffffffffffff1673ffffffffffffffffffffffffffffffffffffffff1614156113a557600681815481106110c2577f4e487b7100000000000000000000000000000000000000000000000000000000600052603260045260246000fd5b90600052602060002090600702016040518060e00160405290816000820160009054906101000a900473ffffffffffffffffffffffffffffffffffffffff1673ffffffffffffffffffffffffffffffffffffffff1673ffffffffffffffffffffffffffffffffffffffff1681526020016001820160009054906101000a900473ffffffffffffffffffffffffffffffffffffffff1673ffffffffffffffffffffffffffffffffffffffff1673ffffffffffffffffffffffffffffffffffffffff16815260200160028201805461119790614155565b80601f01602080910402602001604051908101604052809291908181526020018280546111c390614155565b80156112105780601f106111e557610100808354040283529160200191611210565b820191906000526020600020905b8154815290600101906020018083116111f357829003601f168201915b5050505050815260200160038201805461122990614155565b80601f016020809104026020016040519081016040528092919081815260200182805461125590614155565b80156112a25780601f10611277576101008083540402835291602001916112a2565b820191906000526020600020905b81548152906001019060200180831161128557829003601f168201915b5050505050815260200160048201548152602001600582015481526020016006820180546112cf90614155565b80601f01602080910402602001604051908101604052809291908181526020018280546112fb90614155565b80156113485780601f1061131d57610100808354040283529160200191611348565b820191906000526020600020905b81548152906001019060200180831161132b57829003601f168201915b50505050508152505083838151811061138a577f4e487b7100000000000000000000000000000000000000000000000000000000600052603260045260246000fd5b60200260200101819052506001826113a29190614041565b91505b80806113b0906141b8565b915050610fe1565b508194505050505090565b6000600354905090565b6000600254905090565b6000600580549050905060008060005b838110156114a857856040516020016114009190613cde565b6040516020818303038152906040528051906020012060058281548110611450577f4e487b7100000000000000000000000000000000000000000000000000000000600052603260045260246000fd5b90600052602060002090600502016002016040516020016114719190613cf5565b604051602081830303815290604052805190602001201415611495578091506114a8565b80806114a0906141b8565b9150506113e7565b5060005b8381101561156e573373ffffffffffffffffffffffffffffffffffffffff1660058281548110611505577f4e487b7100000000000000000000000000000000000000000000000000000000600052603260045260246000fd5b906000526020600020906005020160000160009054906101000a900473ffffffffffffffffffffffffffffffffffffffff1673ffffffffffffffffffffffffffffffffffffffff16141561155b5780925061156e565b8080611566906141b8565b9150506114ac565b5085600582815481106115aa577f4e487b7100000000000000000000000000000000000000000000000000000000600052603260045260246000fd5b9060005260206000209060050201600301546115c69190614041565b60058281548110611600577f4e487b7100000000000000000000000000000000000000000000000000000000600052603260045260246000fd5b9060005260206000209060050201600301819055508560058381548110611650577f4e487b7100000000000000000000000000000000000000000000000000000000600052603260045260246000fd5b90600052602060002090600502016003015461166c9190614097565b600583815481106116a6577f4e487b7100000000000000000000000000000000000000000000000000000000600052603260045260246000fd5b90600052602060002090600502016003018190555085600583815481106116f6577f4e487b7100000000000000000000000000000000000000000000000000000000600052603260045260246000fd5b9060005260206000209060050201600401546117129190614041565b6005838154811061174c577f4e487b7100000000000000000000000000000000000000000000000000000000600052603260045260246000fd5b90600052602060002090600502016004018190555060066040518060e001604052803373ffffffffffffffffffffffffffffffffffffffff168152602001600584815481106117c4577f4e487b7100000000000000000000000000000000000000000000000000000000600052603260045260246000fd5b906000526020600020906005020160000160009054906101000a900473ffffffffffffffffffffffffffffffffffffffff1673ffffffffffffffffffffffffffffffffffffffff1681526020016005858154811061184b577f4e487b7100000000000000000000000000000000000000000000000000000000600052603260045260246000fd5b9060005260206000209060050201600201805461186790614155565b80601f016020809104026020016040519081016040528092919081815260200182805461189390614155565b80156118e05780601f106118b5576101008083540402835291602001916118e0565b820191906000526020600020905b8154815290600101906020018083116118c357829003601f168201915b5050505050815260200187815260200142815260200188815260200186815250908060018154018082558091505060019003906000526020600020906007020160009091909190915060008201518160000160006101000a81548173ffffffffffffffffffffffffffffffffffffffff021916908373ffffffffffffffffffffffffffffffffffffffff16021790555060208201518160010160006101000a81548173ffffffffffffffffffffffffffffffffffffffff021916908373ffffffffffffffffffffffffffffffffffffffff16021790555060408201518160020190805190602001906119d3929190613534565b5060608201518160030190805190602001906119f0929190613534565b506080820151816004015560a0820151816005015560c0820151816006019080519060200190611a21929190613534565b5050506001600354611a339190614041565b600381905550505050505050565b60025481565b600080600580549050905060005b81811015611bc35783604051602001611a6e9190613cde565b6040516020818303038152906040528051906020012060058281548110611abe577f4e487b7100000000000000000000000000000000000000000000000000000000600052603260045260246000fd5b9060005260206000209060050201600201604051602001611adf9190613cf5565b604051602081830303815290604052805190602001201415611b0657600092505050611bca565b60058181548110611b40577f4e487b7100000000000000000000000000000000000000000000000000000000600052603260045260246000fd5b906000526020600020906005020160000160009054906101000a900473ffffffffffffffffffffffffffffffffffffffff1673ffffffffffffffffffffffffffffffffffffffff163373ffffffffffffffffffffffffffffffffffffffff161415611bb057600092505050611bca565b8080611bbb906141b8565b915050611a55565b5060019150505b919050565b611bd76135ba565b6000600580549050905060005b81811015611e88573373ffffffffffffffffffffffffffffffffffffffff1660058281548110611c3d577f4e487b7100000000000000000000000000000000000000000000000000000000600052603260045260246000fd5b906000526020600020906005020160000160009054906101000a900473ffffffffffffffffffffffffffffffffffffffff1673ffffffffffffffffffffffffffffffffffffffff161415611e755760058181548110611cc5577f4e487b7100000000000000000000000000000000000000000000000000000000600052603260045260246000fd5b90600052602060002090600502016040518060a00160405290816000820160009054906101000a900473ffffffffffffffffffffffffffffffffffffffff1673ffffffffffffffffffffffffffffffffffffffff1673ffffffffffffffffffffffffffffffffffffffff168152602001600182018054611d4490614155565b80601f0160208091040260200160405190810160405280929190818152602001828054611d7090614155565b8015611dbd5780601f10611d9257610100808354040283529160200191611dbd565b820191906000526020600020905b815481529060010190602001808311611da057829003601f168201915b50505050508152602001600282018054611dd690614155565b80601f0160208091040260200160405190810160405280929190818152602001828054611e0290614155565b8015611e4f5780601f10611e2457610100808354040283529160200191611e4f565b820191906000526020600020905b815481529060010190602001808311611e3257829003601f168201915b505050505081526020016003820154815260200160048201548152505092505050611f0e565b8080611e80906141b8565b915050611be4565b5060006040518060400160405280600581526020017f656d707479000000000000000000000000000000000000000000000000000000815250905060006040518060a00160405280600073ffffffffffffffffffffffffffffffffffffffff16815260200183815260200183815260200160008152602001600081525090508093505050505b90565b60006005805490509050600080600090505b82811015611fe45784604051602001611f3c9190613cde565b6040516020818303038152906040528051906020012060058281548110611f8c577f4e487b7100000000000000000000000000000000000000000000000000000000600052603260045260246000fd5b9060005260206000209060050201600201604051602001611fad9190613cf5565b604051602081830303815290604052805190602001201415611fd157809150611fe4565b8080611fdc906141b8565b915050611f23565b5084600154611ff39190614097565b600181905550846002546120079190614041565b6002819055508460058281548110612048577f4e487b7100000000000000000000000000000000000000000000000000000000600052603260045260246000fd5b9060005260206000209060050201600301546120649190614041565b6005828154811061209e577f4e487b7100000000000000000000000000000000000000000000000000000000600052603260045260246000fd5b90600052602060002090600502016003018190555060015460056000815481106120f1577f4e487b7100000000000000000000000000000000000000000000000000000000600052603260045260246000fd5b9060005260206000209060050201600301819055506002546005600081548110612144577f4e487b7100000000000000000000000000000000000000000000000000000000600052603260045260246000fd5b90600052602060002090600502016004018190555060066040518060e0016040528060008054906101000a900473ffffffffffffffffffffffffffffffffffffffff1673ffffffffffffffffffffffffffffffffffffffff168152602001600584815481106121dc577f4e487b7100000000000000000000000000000000000000000000000000000000600052603260045260246000fd5b906000526020600020906005020160000160009054906101000a900473ffffffffffffffffffffffffffffffffffffffff1673ffffffffffffffffffffffffffffffffffffffff1681526020016040518060400160405280600781526020017f43656e7472616c00000000000000000000000000000000000000000000000000815250815260200186815260200142815260200187815260200185815250908060018154018082558091505060019003906000526020600020906007020160009091909190915060008201518160000160006101000a81548173ffffffffffffffffffffffffffffffffffffffff021916908373ffffffffffffffffffffffffffffffffffffffff16021790555060208201518160010160006101000a81548173ffffffffffffffffffffffffffffffffffffffff021916908373ffffffffffffffffffffffffffffffffffffffff160217905550604082015181600201908051906020019061234d929190613534565b50606082015181600301908051906020019061236a929190613534565b506080820151816004015560a0820151816005015560c082015181600601908051906020019061239b929190613534565b50505060016003546123ad9190614041565b6003819055505050505050565b600681815481106123ca57600080fd5b90600052602060002090600702016000915090508060000160009054906101000a900473ffffffffffffffffffffffffffffffffffffffff16908060010160009054906101000a900473ffffffffffffffffffffffffffffffffffffffff169080600201805461243990614155565b80601f016020809104026020016040519081016040528092919081815260200182805461246590614155565b80156124b25780601f10612487576101008083540402835291602001916124b2565b820191906000526020600020905b81548152906001019060200180831161249557829003601f168201915b5050505050908060030180546124c790614155565b80601f01602080910402602001604051908101604052809291908181526020018280546124f390614155565b80156125405780601f1061251557610100808354040283529160200191612540565b820191906000526020600020905b81548152906001019060200180831161252357829003601f168201915b50505050509080600401549080600501549080600601805461256190614155565b80601f016020809104026020016040519081016040528092919081815260200182805461258d90614155565b80156125da5780601f106125af576101008083540402835291602001916125da565b820191906000526020600020905b8154815290600101906020018083116125bd57829003601f168201915b5050505050905087565b600080600580549050905060005b818110156126b7573373ffffffffffffffffffffffffffffffffffffffff166005828154811061264b577f4e487b7100000000000000000000000000000000000000000000000000000000600052603260045260246000fd5b906000526020600020906005020160000160009054906101000a900473ffffffffffffffffffffffffffffffffffffffff1673ffffffffffffffffffffffffffffffffffffffff1614156126a4576001925050506126be565b80806126af906141b8565b9150506125f2565b5060009150505b90565b60015481565b60008054906101000a900473ffffffffffffffffffffffffffffffffffffffff1681565b806001546126f99190614041565b6005600081548110612734577f4e487b7100000000000000000000000000000000000000000000000000000000600052603260045260246000fd5b9060005260206000209060050201600301819055506004604051806040016040528083815260200142815250908060018154018082558091505060019003906000526020600020906002020160009091909190915060008201518160000155602082015181600101555050806001546127ad9190614041565b60018190555050565b60008060009054906101000a900473ffffffffffffffffffffffffffffffffffffffff1673ffffffffffffffffffffffffffffffffffffffff163373ffffffffffffffffffffffffffffffffffffffff161415612816576001905061281b565b600090505b90565b6005818154811061282e57600080fd5b90600052602060002090600502016000915090508060000160009054906101000a900473ffffffffffffffffffffffffffffffffffffffff169080600101805461287790614155565b80601f01602080910402602001604051908101604052809291908181526020018280546128a390614155565b80156128f05780601f106128c5576101008083540402835291602001916128f0565b820191906000526020600020905b8154815290600101906020018083116128d357829003601f168201915b50505050509080600201805461290590614155565b80601f016020809104026020016040519081016040528092919081815260200182805461293190614155565b801561297e5780601f106129535761010080835404028352916020019161297e565b820191906000526020600020905b81548152906001019060200180831161296157829003601f168201915b5050505050908060030154908060040154905085565b60056040518060a001604052808573ffffffffffffffffffffffffffffffffffffffff168152602001848152602001838152602001600081526020016000815250908060018154018082558091505060019003906000526020600020906005020160009091909190915060008201518160000160006101000a81548173ffffffffffffffffffffffffffffffffffffffff021916908373ffffffffffffffffffffffffffffffffffffffff1602179055506020820151816001019080519060200190612a61929190613534565b506040820151816002019080519060200190612a7e929190613534565b5060608201518160030155608082015181600401555050505050565b60606004805480602002602001604051908101604052809291908181526020016000905b82821015612b0457838290600052602060002090600202016040518060400160405290816000820154815260200160018201548152505081526020019060010190612abe565b50505050905090565b6000600154905090565b6060600060068054905090506000805b82811015612ca5573373ffffffffffffffffffffffffffffffffffffffff1660068281548110612b80577f4e487b7100000000000000000000000000000000000000000000000000000000600052603260045260246000fd5b906000526020600020906007020160000160009054906101000a900473ffffffffffffffffffffffffffffffffffffffff1673ffffffffffffffffffffffffffffffffffffffff161415612be257600182612bdb9190614041565b9150612c92565b3373ffffffffffffffffffffffffffffffffffffffff1660068281548110612c33577f4e487b7100000000000000000000000000000000000000000000000000000000600052603260045260246000fd5b906000526020600020906007020160010160009054906101000a900473ffffffffffffffffffffffffffffffffffffffff1673ffffffffffffffffffffffffffffffffffffffff161415612c9157600182612c8e9190614041565b91505b5b8080612c9d906141b8565b915050612b27565b5060008167ffffffffffffffff811115612ce8577f4e487b7100000000000000000000000000000000000000000000000000000000600052604160045260246000fd5b604051908082528060200260200182016040528015612d2157816020015b612d0e6134cb565b815260200190600190039081612d065790505b5090506000805b848110156134c0573373ffffffffffffffffffffffffffffffffffffffff1660068281548110612d81577f4e487b7100000000000000000000000000000000000000000000000000000000600052603260045260246000fd5b906000526020600020906007020160000160009054906101000a900473ffffffffffffffffffffffffffffffffffffffff1673ffffffffffffffffffffffffffffffffffffffff1614156130f05760068181548110612e09577f4e487b7100000000000000000000000000000000000000000000000000000000600052603260045260246000fd5b90600052602060002090600702016040518060e00160405290816000820160009054906101000a900473ffffffffffffffffffffffffffffffffffffffff1673ffffffffffffffffffffffffffffffffffffffff1673ffffffffffffffffffffffffffffffffffffffff1681526020016001820160009054906101000a900473ffffffffffffffffffffffffffffffffffffffff1673ffffffffffffffffffffffffffffffffffffffff1673ffffffffffffffffffffffffffffffffffffffff168152602001600282018054612ede90614155565b80601f0160208091040260200160405190810160405280929190818152602001828054612f0a90614155565b8015612f575780601f10612f2c57610100808354040283529160200191612f57565b820191906000526020600020905b815481529060010190602001808311612f3a57829003601f168201915b50505050508152602001600382018054612f7090614155565b80601f0160208091040260200160405190810160405280929190818152602001828054612f9c90614155565b8015612fe95780601f10612fbe57610100808354040283529160200191612fe9565b820191906000526020600020905b815481529060010190602001808311612fcc57829003601f168201915b50505050508152602001600482015481526020016005820154815260200160068201805461301690614155565b80601f016020809104026020016040519081016040528092919081815260200182805461304290614155565b801561308f5780601f106130645761010080835404028352916020019161308f565b820191906000526020600020905b81548152906001019060200180831161307257829003601f168201915b5050505050815250508383815181106130d1577f4e487b7100000000000000000000000000000000000000000000000000000000600052603260045260246000fd5b60200260200101819052506001826130e99190614041565b91506134ad565b3373ffffffffffffffffffffffffffffffffffffffff1660068281548110613141577f4e487b7100000000000000000000000000000000000000000000000000000000600052603260045260246000fd5b906000526020600020906007020160010160009054906101000a900473ffffffffffffffffffffffffffffffffffffffff1673ffffffffffffffffffffffffffffffffffffffff1614156134ac57600681815481106131c9577f4e487b7100000000000000000000000000000000000000000000000000000000600052603260045260246000fd5b90600052602060002090600702016040518060e00160405290816000820160009054906101000a900473ffffffffffffffffffffffffffffffffffffffff1673ffffffffffffffffffffffffffffffffffffffff1673ffffffffffffffffffffffffffffffffffffffff1681526020016001820160009054906101000a900473ffffffffffffffffffffffffffffffffffffffff1673ffffffffffffffffffffffffffffffffffffffff1673ffffffffffffffffffffffffffffffffffffffff16815260200160028201805461329e90614155565b80601f01602080910402602001604051908101604052809291908181526020018280546132ca90614155565b80156133175780601f106132ec57610100808354040283529160200191613317565b820191906000526020600020905b8154815290600101906020018083116132fa57829003601f168201915b5050505050815260200160038201805461333090614155565b80601f016020809104026020016040519081016040528092919081815260200182805461335c90614155565b80156133a95780601f1061337e576101008083540402835291602001916133a9565b820191906000526020600020905b81548152906001019060200180831161338c57829003601f168201915b5050505050815260200160048201548152602001600582015481526020016006820180546133d690614155565b80601f016020809104026020016040519081016040528092919081815260200182805461340290614155565b801561344f5780601f106134245761010080835404028352916020019161344f565b820191906000526020600020905b81548152906001019060200180831161343257829003601f168201915b505050505081525050838381518110613491577f4e487b7100000000000000000000000000000000000000000000000000000000600052603260045260246000fd5b60200260200101819052506001826134a99190614041565b91505b5b80806134b8906141b8565b915050612d28565b508194505050505090565b6040518060e00160405280600073ffffffffffffffffffffffffffffffffffffffff168152602001600073ffffffffffffffffffffffffffffffffffffffff16815260200160608152602001606081526020016000815260200160008152602001606081525090565b82805461354090614155565b90600052602060002090601f01602090048101928261356257600085556135a9565b82601f1061357b57805160ff19168380011785556135a9565b828001600101855582156135a9579182015b828111156135a857825182559160200191906001019061358d565b5b5090506135b691906135ff565b5090565b6040518060a00160405280600073ffffffffffffffffffffffffffffffffffffffff168152602001606081526020016060815260200160008152602001600081525090565b5b80821115613618576000816000905550600101613600565b5090565b600061362f61362a84613f18565b613ef3565b90508281526020810184848401111561364757600080fd5b613652848285614113565b509392505050565b6000813590506136698161429f565b92915050565b600082601f83011261368057600080fd5b813561369084826020860161361c565b91505092915050565b6000813590506136a8816142b6565b92915050565b6000806000606084860312156136c357600080fd5b60006136d18682870161365a565b935050602084013567ffffffffffffffff8111156136ee57600080fd5b6136fa8682870161366f565b925050604084013567ffffffffffffffff81111561371757600080fd5b6137238682870161366f565b9150509250925092565b60006020828403121561373f57600080fd5b600082013567ffffffffffffffff81111561375957600080fd5b6137658482850161366f565b91505092915050565b60006020828403121561378057600080fd5b600061378e84828501613699565b91505092915050565b6000806000606084860312156137ac57600080fd5b60006137ba86828701613699565b935050602084013567ffffffffffffffff8111156137d757600080fd5b6137e38682870161366f565b925050604084013567ffffffffffffffff81111561380057600080fd5b61380c8682870161366f565b9150509250925092565b60006138228383613aed565b60408301905092915050565b600061383a8383613b1c565b905092915050565b600061384e8383613c16565b905092915050565b61385f816140cb565b82525050565b61386e816140cb565b82525050565b600061387f82613f8e565b6138898185613fe1565b935061389483613f49565b8060005b838110156138c55781516138ac8882613816565b97506138b783613fba565b925050600181019050613898565b5085935050505092915050565b60006138dd82613f99565b6138e78185613ff2565b9350836020820285016138f985613f59565b8060005b858110156139355784840389528151613916858261382e565b945061392183613fc7565b925060208a019950506001810190506138fd565b50829750879550505050505092915050565b600061395282613fa4565b61395c8185614003565b93508360208202850161396e85613f69565b8060005b858110156139aa578484038952815161398b8582613842565b945061399683613fd4565b925060208a01995050600181019050613972565b50829750879550505050505092915050565b6139c5816140dd565b82525050565b60006139d682613faf565b6139e08185614014565b93506139f0818560208601614122565b6139f98161428e565b840191505092915050565b6000613a0f82613faf565b613a198185614025565b9350613a29818560208601614122565b613a328161428e565b840191505092915050565b6000613a4882613faf565b613a528185614036565b9350613a62818560208601614122565b80840191505092915050565b60008154613a7b81614155565b613a858186614036565b94506001821660008114613aa05760018114613ab157613ae4565b60ff19831686528186019350613ae4565b613aba85613f79565b60005b83811015613adc57815481890152600182019150602081019050613abd565b838801955050505b50505092915050565b604082016000820151613b036000850182613cc0565b506020820151613b166020850182613cc0565b50505050565b600060a083016000830151613b346000860182613856565b5060208301518482036020860152613b4c82826139cb565b91505060408301518482036040860152613b6682826139cb565b9150506060830151613b7b6060860182613cc0565b506080830151613b8e6080860182613cc0565b508091505092915050565b600060a083016000830151613bb16000860182613856565b5060208301518482036020860152613bc982826139cb565b91505060408301518482036040860152613be382826139cb565b9150506060830151613bf86060860182613cc0565b506080830151613c0b6080860182613cc0565b508091505092915050565b600060e083016000830151613c2e6000860182613856565b506020830151613c416020860182613856565b5060408301518482036040860152613c5982826139cb565b91505060608301518482036060860152613c7382826139cb565b9150506080830151613c886080860182613cc0565b5060a0830151613c9b60a0860182613cc0565b5060c083015184820360c0860152613cb382826139cb565b9150508091505092915050565b613cc981614109565b82525050565b613cd881614109565b82525050565b6000613cea8284613a3d565b915081905092915050565b6000613d018284613a6e565b915081905092915050565b6000602082019050613d216000830184613865565b92915050565b600060e082019050613d3c600083018a613865565b613d496020830189613865565b8181036040830152613d5b8188613a04565b90508181036060830152613d6f8187613a04565b9050613d7e6080830186613ccf565b613d8b60a0830185613ccf565b81810360c0830152613d9d8184613a04565b905098975050505050505050565b600060a082019050613dc06000830188613865565b8181036020830152613dd28187613a04565b90508181036040830152613de68186613a04565b9050613df56060830185613ccf565b613e026080830184613ccf565b9695505050505050565b60006020820190508181036000830152613e268184613874565b905092915050565b60006020820190508181036000830152613e4881846138d2565b905092915050565b60006020820190508181036000830152613e6a8184613947565b905092915050565b6000602082019050613e8760008301846139bc565b92915050565b60006020820190508181036000830152613ea78184613b99565b905092915050565b6000602082019050613ec46000830184613ccf565b92915050565b6000604082019050613edf6000830185613ccf565b613eec6020830184613ccf565b9392505050565b6000613efd613f0e565b9050613f098282614187565b919050565b6000604051905090565b600067ffffffffffffffff821115613f3357613f3261425f565b5b613f3c8261428e565b9050602081019050919050565b6000819050602082019050919050565b6000819050602082019050919050565b6000819050602082019050919050565b60008190508160005260206000209050919050565b600081519050919050565b600081519050919050565b600081519050919050565b600081519050919050565b6000602082019050919050565b6000602082019050919050565b6000602082019050919050565b600082825260208201905092915050565b600082825260208201905092915050565b600082825260208201905092915050565b600082825260208201905092915050565b600082825260208201905092915050565b600081905092915050565b600061404c82614109565b915061405783614109565b9250827fffffffffffffffffffffffffffffffffffffffffffffffffffffffffffffffff0382111561408c5761408b614201565b5b828201905092915050565b60006140a282614109565b91506140ad83614109565b9250828210156140c0576140bf614201565b5b828203905092915050565b60006140d6826140e9565b9050919050565b60008115159050919050565b600073ffffffffffffffffffffffffffffffffffffffff82169050919050565b6000819050919050565b82818337600083830152505050565b60005b83811015614140578082015181840152602081019050614125565b8381111561414f576000848401525b50505050565b6000600282049050600182168061416d57607f821691505b6020821081141561418157614180614230565b5b50919050565b6141908261428e565b810181811067ffffffffffffffff821117156141af576141ae61425f565b5b80604052505050565b60006141c382614109565b91507fffffffffffffffffffffffffffffffffffffffffffffffffffffffffffffffff8214156141f6576141f5614201565b5b600182019050919050565b7f4e487b7100000000000000000000000000000000000000000000000000000000600052601160045260246000fd5b7f4e487b7100000000000000000000000000000000000000000000000000000000600052602260045260246000fd5b7f4e487b7100000000000000000000000000000000000000000000000000000000600052604160045260246000fd5b6000601f19601f8301169050919050565b6142a8816140cb565b81146142b357600080fd5b50565b6142bf81614109565b81146142ca57600080fd5b5056fea2646970667358221220d52f461cf9a58c6320f17ba2252cfb2bf9912dba9d04ec53563ad29dbecc552164736f6c63430008010033",
  "linkReferences": {},
  "deployedLinkReferences": {}
}